:020000040800F2
:10000000B01A00209D010008CB190008071700084E
:10001000C9190008B9070008E51F00080000000022
:100020000000000000000000000000000D1A0008A1
:10003000BB07000800000000CD1900080F1A0008D7
:10004000B7010008B7010008B7010008B7010008B0
:10005000B7010008B7010008B7010008B7010008A0
:10006000B7010008B7010008B7010008B701000890
:10007000B7010008B7010008B7010008B701000880
:10008000B7010008B7010008B7010008B701000870
:10009000B7010008B7010008B7010008B701000860
:1000A000B7010008B7010008B7010008B701000850
:1000B000B7010008B51A0008C11A0008B701000806
:1000C000B7010008B7010008B7010008B701000830
:1000D000B7010008D91F0008B7010008B7010008E0
:1000E000B7010008B7010008B7010008B701000810
:1000F000B7010008B7010008B7010008B701000800
:10010000B7010008B7010008B7010008B7010008EF
:10011000B7010008B7010008B7010008B7010008DF
:10012000B7010008B7010008B7010008B7010008CF
:10013000B7010008B7010008B7010008B7010008BF
:10014000B7010008B7010008B7010008B7010008AF
:10015000B7010008B7010008B7010008B70100089F
:10016000B7010008B7010008B7010008B70100088F
:10017000B7010008B7010008B7010008000000003F
:10018000B7010008B7010008DFF80CD000F002FB4F
:10019000004800470D2B0008B01A00200648804791
:1001A00006480047FEE7FEE7FEE7FEE7FEE7FEE75C
:1001B000FEE7FEE7FEE7FEE7991A0008890100085E
:1001C0002DE9F05F0546002092469B46884606468C
:1001D000814640241BE0284641464746224600F01F
:1001E0002AFA53465A46C01A914110D3114618466E
:1001F000224600F011FA2D1A67EB01084F462246FD
:100200000120002100F008FA17EB00094E41201EE2
:10021000A4F10104DFDC484631462A464346BDE8E6
:10022000F09F40EA01039B0703D009E008C9121FB1
:1002300008C0042AFAD203E011F8013B00F8013BA0
:10024000521EF9D27047D2B201E000F8012B491ECC
:10025000FBD270470022F6E710B513460A46044663
:100260001946FFF7F0FF204610BD2DE9FE4F8046EE
:1002700081EA0300C00F0C46009021F0004123F0FA
:100280000045B8EB0200A94105D240462146904600
:100290001C460B46024623F00040104347D0270D72
:1002A000C7F30A00C3F30A510290401A0190402894
:1002B0006BDAC3F3130040F4801B0098924620B120
:1002C0000023D2EB030A63EB0B0B01985946C0F1F4
:1002D0004002504600F0A0F906460D4650465946E9
:1002E000019A00F0B8F910EB08006141002487EA98
:1002F000115284EAE7731A4340D0009A62B3019A1C
:10030000012A4FEA075215DC001B61EB02014FF096
:10031000004202EA0752CDE90042001C41F580117B
:1003200032462B4600F0B8F903B0BDE8F08F4046E6
:100330002146F9E7001B61EB0201001C41F5801327
:1003400000185B412018A2F5001747EB030140EAB3
:10035000D570B6196D4111E06D084FEA360645EAD1
:10036000C0754FEA0752001B61EB0201001C41F50A
:10037000801149084FEA30000019514132462B469E
:1003800003B0BDE8F04F00F078B9009801224000BA
:100390000023D0EB020263EBE073009821464FEAA2
:1003A000E074B8EB000061EB0401E9E783F000437F
:1003B0005BE781F0004158E72DE9FE4F81EA030435
:1003C00004F0004421F0004100944FF0000B23F0B2
:1003D000004350EA01045ED052EA03045BD0C3F349
:1003E0000A54C1F30A552C44A4F2F3340194A0FB3F
:1003F0000254C1F3130141F48011C3F3130343F416
:10040000801301FB024400FB034E840A970A44EA6E
:10041000815447EA8357A4FB076802958D0A05FBC0
:1004200007854FEA932C04FB0C542705029D4FEAE5
:10043000065847EA1637B5EB08056EEB070C870E32
:10044000920E47EA811742EA8312A7FB0201B6EB3C
:100450000B0164EB00042B0D43EA0C335E1844EBF4
:100460001C50DA465146E7FB0201C5F313044FEA7C
:100470000B3343EA14534FEA0432019C43EA060368
:10048000A4F10C040294009CCDE900B400F004F93E
:1004900003B0BDE8F08F00200146F9E72DE9F04DEB
:1004A00081EA030404F0004B21F0004514464FF0AC
:1004B000000A23F0004150EA050220D054EA01026C
:1004C0001DD0C5F30A570246C5F31303C1F3130049
:1004D000C1F30A5640F4801543F48013A7EB0608D5
:1004E000101BD64608F2FD3873EB050002D308F165
:1004F000010801E092185B41B8F1000F03DA002017
:100500000146BDE8F08D00204FF480110646844678
:100510000EE0171B73EB050705D3121B63EB0503F6
:1005200006434CEA010C49084FEA300092185B413F
:1005300050EA0107EDD152EA030012D082EA04002A
:1005400083EA0501084305D0101BAB4106D2012206
:10055000002306E000224FF0004302E06FF00102AA
:1005600053101AEB06004CEB085110EB0A0041EB5C
:100570000B01BDE8F04D00F080B80EB540F23341FC
:1005800002910021CDE900110A460B4600F084F8E3
:1005900003B000BDC1F30A5210B5C1F3130140F21C
:1005A000FF3341F480119A4201DA002010BD40F27D
:1005B00033439A42A2F2334203DC524200F03BF84A
:1005C00010BD904010BD00F0004230F000400AD055
:1005D000C10D01F56071C0F3160042EA0151C20875
:1005E00040071143704700200146704730B50B4665
:1005F000014600202022012409E021FA02F59D4253
:1006000005D303FA02F5491B04FA02F52844151E26
:10061000A2F10102F1DC30BD202A04DB203A00FA0D
:1006200002F1002070479140C2F1200320FA03F349
:10063000194390407047202A04DB203A21FA02F047
:100640000021704721FA02F3D040C2F1200291400C
:10065000084319467047202A06DBCB17203A41FA97
:1006600002F043EAE07306E041FA02F3D040C2F13F
:100670002002914008431946704710B5141E73F1CB
:10068000000408DA401C41F1000192185B411A4352
:1006900001D120F0010010BD2DE9F04D92469B469E
:1006A00011B1B1FA81F202E0B0FA80F22032904644
:1006B000FFF7B2FF04460F4640EA0A0041EA0B0189
:1006C00053465A46084313D0114653EA010019D045
:1006D000C8F140025046FFF7AEFF05460E465046B1
:1006E00059464246FFF798FF084305D0012004E031
:1006F00020463946BDE8F08D0020054346EAE07605
:100700002C4337430A986305E40AA0EB0800002253
:10071000FD0A44EA47540A3002D500200146E9E7C1
:10072000010510196941DDE9084500196941BDE875
:10073000F04DA2E7C1F30A52C1F3130140F2FF33B7
:1007400041F480119A4202DA00200146704740F2DB
:1007500033439A42A2F2334202DC5242FFF76BBFAC
:10076000FFF75ABF30B5041E71F1000404DB4FF0EF
:100770000044404264EB0101141E73F1000405DBE8
:100780001C464FF00043524263EB0403994208BFFA
:10079000904230BD064C074D06E0E06840F0010392
:1007A00094E8070098471034AC42F6D3FFF7F0FC0A
:1007B000143C0008343C0008FEE770477047000016
:1007C0000D4910B5884200D90846FFF7D6FE9FEDC7
:1007D0000B1B53EC112BFFF7EFFDFFF7DBFE094975
:1007E000020AC8718A71020C4A71000E0871BDE8D4
:1007F000104001F067BA00000084D71795D626E8AC
:100800000B2E11405800002090F83510022903D01B
:100810008021416501207047052180F8351000686E
:10082000016821F0010101600020704770B50446A5
:1008300000F0F0F80546601C02D00448007804443B
:1008400000F0E8F8401BA042FAD370BD040000207D
:100850002DE9F84F00224FF0010803254FF00F0E4D
:100860000B6808FA02F42340A3426ED14E68012EB1
:1008700005D0022E03D0112E01D0122E12D186687F
:100880004FEA420C05FA0CF7BE43CF6807FA0CF7A3
:10089000374387604668A6430C79C4F3001494403C
:1008A00034434460C668570005FA07FC8C6826EAA2
:1008B0000C06BC403443C4604C68022C01D0122C9E
:1008C00013D1D40800EB8404A346D4F82090540735
:1008D0004FEAD46A0EFA0AF629EA06090E6906FA00
:1008E0000AF646EA0906CBF8206006680C7926EA83
:1008F0000C0604F00304BC40344304604C68E4007C
:1009000065D5364C266846F480462660246822F079
:10091000030604F480440094314C3444A446D4F8D3
:1009200008489607370F0EFA07F6B4432D4EB0422B
:1009300001D1002624E02C4EB04201D101261FE057
:100940002A4EB04202D102261AE040E0284EB042C0
:1009500001D1032614E0274EB04201D104260FE056
:10096000254EB04201D105260AE0244EB04201D105
:10097000062605E0224EB04201D1072600E00826F7
:10098000BE402643CCF808681E4E34684F689C432E
:10099000FF0300D51C4334601A4C241D26684F68A1
:1009A0009E43BF0300D51E432660164E08363468AA
:1009B0004F689C43FF0200D51C433460114E0C3637
:1009C00034684F689C43BF0200D51C433460521CFE
:1009D000102AFFF445AFBDE8F88F0000443802400C
:1009E00000300140000002400004024000080240C4
:1009F000000C0240001002400014024000180240A7
:100A0000001C0240003C01400AB1816170470904AA
:100A1000FBE70000014880687047000004000020E8
:100A20000248816802781144816070470400002008
:100A30000B4810B5016841F400710160016841F490
:100A400080610160016841F480710160032000F061
:100A50006FF8002000F006F800F024F8002010BD28
:100A6000003C024070B50D4D04464FF47A71287871
:100A7000B1FBF0F00A490968B1FBF0F000F002FBAD
:100A800048B9102C07D200222146501E00F030F841
:100A900000206C6070BD012070BD000004000020CB
:100AA000100000200A4808B5016841F48041016047
:100AB000006800F4804000900548001F016841F084
:100AC00080510160006800F08050009008BD000077
:100AD00044380240002809DB00F01F020121914048
:100AE0004009800000F1E020C0F8001170470000CC
:100AF000F0B40E4B1B680C46C3F30223C3F1070589
:100B0000042D00D90425191D072901D2002300E076
:100B1000DB1E012606FA05F1491E214099409E4040
:100B2000761E16403143F0BC01F08EBA0CED00E0A9
:100B3000064900F0070208684FF6FF03184040EA34
:100B40000220034A10430860704700000CED00E0EB
:100B50000000FA052DE9F0470E46050065D0DFF8E4
:100B60001481D8F80000F7B200F00F00B04207D2AD
:100B700088F80070D8F8000000F00F00B04254D19F
:100B800028683D4C810712D5400703D5206840F402
:100B9000E05020602878000703D5206840F46040CA
:100BA00020602068A96820F0F000084320602878C1
:100BB000C0072DD0304968680839012812D00228B2
:100BC00013D0032811D00968890700292DDA21687C
:100BD00021F0030101432160FFF71CFF814641F230
:100BE000883A0EE009688903EFE709688901ECE7B4
:100BF000FFF710FFA0EB0901514502D90320BDE822
:100C0000F0872068696800F00C00B0EB810FEFD12D
:100C1000D8F80010404601F00F01B14207D9077023
:100C2000006800F00F00B04201D00120E7E728780B
:100C3000400705D52068E96820F4E05008432060AB
:100C40002878000706D52068296920F4604040EA2A
:100C5000C100206000F038F82168084AC1F3031190
:100C6000515CC8400649086006480068FFF7FAFE74
:100C70000020C4E7003C024008380240F82B00087E
:100C80001000002008000020044805490068096899
:100C9000044AC1F38221515CC84070471000002013
:100CA00008380240082C0008044805490068096813
:100CB000044AC1F34231515CC84070471000002023
:100CC00008380240082C0008154810B5006810F0DC
:100CD0000C02144813D04110042A0FD0082A0ED158
:100CE0000F4C241F2268236802F03F025B0207D5E5
:100CF0002068C0F38810A0FB010106E0084610BD83
:100D00002168C1F38811A1FB00010023FFF758FA05
:100D10002168C1F30141491C4900B0FBF1F010BD4D
:100D2000083802400024F4002DE9F84F04006ED08A
:100D30002078DFF83C93C007A9F104054AD009F1F7
:100D400004000168C1F38101012908D00068C0F3E3
:100D5000810002280AD1D9F80000400206D528688F
:100D6000800337D560680028E1D033E06068B0F5D3
:100D7000803F10D0B0F5A02F286810D020F480302C
:100D80002860286820F4802028606068A8B1FFF7F8
:100D900041FE06460DE0286840F48030F4E740F458
:100DA00080202860F7E700BFFFF734FE801B64282F
:100DB00073D828688003F7D50CE0FFF72BFE0646B2
:100DC00005E000BFFFF726FE801B6428F0D82868E6
:100DD0008003F7D42078DFF89C8280074FF0000A68
:100DE0003ED5A348001D016811F00C0F08D0006823
:100DF000C0F3810002280BD1D9F80000400207D4CB
:100E00002868800716D5E068012800D112E02BE1A0
:100E1000E068B8B10120C8F80000FFF7FBFD064606
:100E200005E000BFFFF7F6FD801B0228C0D8286848
:100E30008007F7D52868216920F0F80040EAC10052
:100E400028600DE0C8F800A0FFF7E4FD064604E0C6
:100E5000FFF7E0FD801B02281FD828688007F7D421
:100E60002078000722D5824E83486169703671B1BF
:100E700001210160FFF7CEFD074604E0FFF7CAFD40
:100E8000C01B022809D830688007F7D50EE0C0F8EB
:100E900000A0FFF7BFFD074605E082E0FFF7BAFDBF
:100EA000C01B02287DD830688007F7D4207840071F
:100EB00068D5DFF8BCB100270BF13C0BDBF8000074
:100EC000C0000BD4DBF8001041F08051CBF80010CB
:100ED000DBF80000012700F080500090674E30687A
:100EE000C00510D4306840F480703060FFF792FD88
:100EF000009005E0FFF78EFD0099401A022850D8B7
:100F00003068C005F6D55A4EA0686C3601280FD05F
:100F10000528306810D020F001003060306820F0E3
:100F200004003060A068B8B1FFF774FD00900FE0D6
:100F3000306840F00100F4E740F004003060F7E76B
:100F4000FFF768FD0099411A41F28830814266D866
:100F500030688007F4D50EE0FFF75CFD009007E0F5
:100F6000FFF758FD0099411A41F28830814256D866
:100F700030688007F4D42FB1DBF8001021F08051E5
:100F8000CBF80010A069C8B33949091D0968C1F33D
:100F9000810102294AD00228504607D0C8F86000D3
:100FA00000E03CE0FFF736FD04463BE04746C8F86A
:100FB0006000FFF72FFD064605E000BFFFF72AFDA2
:100FC000801B02282BD828688001F7D4D4E90701B8
:100FD0000843A16A2A4A490802EB0141626A41EAD0
:100FE0008211084394F82C1040EA0161C9F80010FE
:100FF00001203866FFF70EFD044606E036E000BF2C
:10100000FFF708FD001B022809D828688001F7D5E2
:101010002CE000BFFFF7FEFC001B022802D90320D2
:10102000BDE8F88F28688001F4D41FE00128F7D0CC
:10103000D9F80000E26900F48001914214D1226ADB
:1010400000F03F0191420FD147F6C071626A014042
:10105000914209D1A26A00F44031914204D1E16A7F
:1010600000F07060884201D00120D9E70020D7E766
:101070000438024000004742800E474200700040A2
:101080000000FFFF10B5401EB0F1807F01D30120AA
:1010900010BD4FF0E02460610F21601700F0D4FF15
:1010A0000020A06107202061002010BD704770471C
:1010B00070B590F83C20012A32D0012480F83C40E1
:1010C000022280F83D2003685A689D6822F070066D
:1010D0000A6832435A60134B02689A4214D0B2F144
:1010E000804F11D0104B9A420ED0104B9A420BD029
:1010F0000F4B9A4208D00F4B9A4205D00E4B9A42A2
:1011000002D00E4B9A4204D1496825F0800319435E
:10111000916080F83D40002180F83C10084670BD89
:10112000022070BD000001400004004000080040A3
:10113000000C004000040140004001400018004045
:1011400010B5040003D094F83D0010B107E0012071
:1011500010BD002084F83C00204600F00DF802206D
:1011600084F83D00211D206800F0B0FC012084F8C7
:101170003D00002010BD000008B5154A0168154863
:1011800091420ED1016841F0020101600068002225
:1011900000F00200009011461D20FFF7A9FC1D2061
:1011A00010E00D4A914211D1016841F00401016043
:1011B0000068002200F00400009011461E20FFF796
:1011C00097FC1E20BDE80840FFF784BC08BD000066
:1011D0000004004040380240000800400168CA682E
:1011E00042F00102CA600068816801F00701062927
:1011F00003D0016841F0010101600020704770B523
:10120000044690F83C00012817D0012584F83C5092
:10121000022084F83D002068826822F0770222F4E0
:101220007F4282600868502830D00DDC20284DD0E5
:1012300005DC98B310283BD148E0022070BD30286F
:1012400044D0402834D139E0602828D0702806D016
:10125000B0F5805F2CD0B0F5005F29D10AE0CB68F3
:10126000D1E90121206800F095FC2068816841F0F7
:10127000770109E0CB68D1E90121206800F08AFC00
:101280002068816841F48041816011E0CA68496842
:10129000206800F091FC5021206807E016E0CA6841
:1012A0004968206800F099FC6021206800F07CFC0F
:1012B00084F83D50002084F83C0070BDCA6849683D
:1012C000206800F079FC40212068EFE722680146A1
:1012D0001046EBE7704770B50446006801694FF0AF
:1012E0000005C943890715D4C168C943890711D4CA
:1012F000E91E01610120207720688069800720466F
:1013000002D0FFF7E7FF04E000F098F8204600F075
:1013100096F8257720680169C943490717D4C16841
:10132000C943490713D46FF00401016102202077FB
:101330002068806910F4407F204602D0FFF7CAFF82
:1013400004E000F07BF8204600F079F8257720686B
:101350000169C943090716D4C168C943090712D4F2
:101360006FF008010161042020772068C0698007C0
:10137000204602D0FFF7AEFF04E000F05FF8204601
:1013800000F05DF8257720680169C943C90617D4C4
:10139000C168C943C90613D46FF010010161082068
:1013A00020772068C06910F4407F204602D0FFF704
:1013B00091FF04E000F042F8204600F040F8257765
:1013C00020680169C943C90708D1C168C943C90771
:1013D00004D1891E0161204600F032F820680169BD
:1013E000C943090609D4C168C943090605D46FF089
:1013F000800101612046FFF759FE20680169C94359
:10140000490609D4C168C943490605D46FF04001B3
:101410000161204600F01CF820680169C943890673
:101420000BD4C168C943890607D46FF0200101615C
:101430002046BDE87040FFF73ABE70BD7047704768
:101440000249884201D101F079BA7047AC0000200E
:101450007047704770B5026804461068D1685369D8
:1014600010F00F0F52D003F0010501F490762E43D7
:101470005FD0C20705D0CA0503D5E26B42F0010276
:10148000E263420705D5DA0703D0E26B42F00202BD
:10149000E263820705D5DA0703D0E26B42F004026B
:1014A000E263020707D501F020022A4303D0E26B72
:1014B00042F00802E263E26B002A33D0800604D5D2
:1014C000880602D5204600F043FC20684069E16BA5
:1014D000C0F38010090700D428B3204600F02AFC8E
:1014E0002068416949061AD5416921F040014161EE
:1014F000606BA0B11B490165606BFFF785F900289F
:1015000010D0606B016DBDE870400847830610D5B0
:101510008B060ED52046BDE8704000F019BC204671
:10152000FFF797FF70BD2046FFF793FF0020E063B1
:1015300070BD030606D50B0604D52046BDE87040F5
:1015400000F0E6BC4006F3D54806F1D5D168204648
:1015500021F04001D160202184F8391000F0D2F848
:1015600070BD0000251D000870B5040004D094F87B
:101570003900002510B106E0012070BD84F8385014
:10158000204600F023F8242084F839002068C16840
:1015900021F40051C160204600F026FC206801695A
:1015A00021F4904101612068416921F02A014161E3
:1015B0002068C16841F40051C160E563202084F8CF
:1015C000390084F83A00002070BD000010B586B0E4
:1015D000044614216846FEF73DFE184920688842FB
:1015E00029D117480021026842F010020260006809
:1015F00000F01000059012481438026842F0010211
:101600000260006800F0010005904FF4C060009097
:101610000220CDE9010103200390072004906946D0
:101620000848FFF715F9002211462520FFF760FA58
:101630002520FFF74FFA06B010BD00000010014052
:10164000443802400000024070472DE9F843044648
:1016500090F839001F4616460D46202850D1B5B1E6
:10166000AEB194F8380001284AD0012084F838003F
:101670004FF00008C4F83C80212084F83900FFF7BF
:10168000C9F9A6848146E68484F8388026E00120E2
:10169000BDE8F883E08C401EE084A0684B46B0F5BE
:1016A000805F4FF000024FF080012046009703D08A
:1016B00000F05FFCE8B90DE000F05BFCC8B92888D9
:1016C0002168C0F308004860206908B16D1C05E07E
:1016D000AD1C03E0216815F8010B4860E08C002880
:1016E000D8D14B46002240212046009700F041FC13
:1016F00008B10320CCE7202084F839000020C7E798
:101700000220C5E77047FEE770B50E480024C0F818
:1017100094420D4DC5F89842C0F8B042C5F89C42BD
:10172000C5F89042C0F89C420120C5F88802052007
:1017300005F52275FFF77AF82C60BDE8704000F0DF
:101740005FBA000000804042000040422DE9F04FA7
:1017500087B014216846FEF77DFD474800240168E4
:1017600041F080010160016801F08001059101688C
:1017700041F004010160016801F004010591016874
:1017800041F001010160016801F00101059101686A
:1017900041F040010160016801F0400105910168DC
:1017A00041F020010160016801F02001059101680C
:1017B00041F0020101600068DFF8C0B000F00200F3
:1017C0004FF4FE750590012229465846FFF71CF993
:1017D0004FF49F57012239462948FFF715F941F682
:1017E0007048002241462748FFF70EF94FF4205970
:1017F000002249462448FFF707F94FF4806A002287
:1018000051462248FFF700F900950226012503966C
:10181000CDE9015469465846FFF71AF80097039638
:10182000CDE9015469461648FFF712F80327CDF8B1
:1018300000800397CDE9015469461248FFF708F884
:10184000CDF800900397CDE9015469460E48FEF7A4
:10185000FFFFCDF800A00397CDE9015469460B487E
:10186000FEF7F6FF28038DE8510069460648FEF7AB
:10187000EFFF07B0BDE8F08F3038024000000240B3
:101880000004024000080240001802400014024018
:1018900010B586B000241748009401940294039474
:1018A000049413490594016042F2CF01C0E9011488
:1018B0001149C0E9031480218161FFF741FC08B19F
:1018C000FEF77CFF4FF48050009069460948FFF70F
:1018D00096FC08B1FEF772FF049404A9054805942C
:1018E000FFF7E6FB002801D0FEF768FF06B010BD49
:1018F000000400406C0000203F420F0010B586B08D
:101900000024009401940294039404940594002804
:1019100033D0642806D84FF4FA61B1FBF0F14AF2F3
:101920000F4207E01649884227D816492922B1FB01
:10193000F0F081B21548491E134BC0E902418021E5
:1019400004618161C0E90032FFF7FAFB08B1FEF7DC
:1019500035FF4FF48050009069460C48FFF74FFC6C
:1019600008B1FEF72BFF049404A908480594FFF77B
:101970009FFB002801D0FEF721FF06B010BD00003C
:10198000400D030080841E0000080040AC000020D1
:101990000C4810B50A4901604FF41651416000210E
:1019A00081600C22C160C0E904128161C161FFF74E
:1019B000DBFD002803D0BDE81040FEF7FFBE10BDE0
:1019C00000100140EC000020FEE770477047000067
:1019D000F0B50C4A00214FF40063084613600A4E2C
:1019E0004FF6FF741D0400BF04EA40001560D6F8EE
:1019F00030720FB1401C80B21360491CC9B210296B
:101A0000F2D3F0BD18080240000043427047FFF7D0
:101A100007B8000030B593B030216846FEF71AFCD5
:101A200014210CA8FEF716FC19480025016841F0A6
:101A300080510160006800F08050119015480168E5
:101A400041F4804101600068022400F4804011905C
:101A50000120039010200490009406940820CDE902
:101A60000750A820CDE9090404200B906846FFF731
:101A70005BF90CA90F2081E831004FF4A0500F90C2
:101A8000E002109005210CA8FFF764F813B030BDF8
:101A900040380240007000400548016841F4700180
:101AA000016003494FF00060803908607047000012
:101AB00088ED00E00148FFF70EBC00006C0000203C
:101AC0000148FFF708BC0000AC000020F0B5026838
:101AD000254C264D264E274F274B4FF0804CA042D9
:101AE00009D0604507D0A84205D0B04203D0B84223
:101AF00001D0984204D122F0700E4A6842EA0E02E8
:101B0000A0421BD0604519D0A84217D0B04215D0D2
:101B1000B84213D0984211D0184DA8420ED0184D9B
:101B2000A8420BD0174DA84208D0174DA84205D0A7
:101B3000164DA84202D0164DA84203D122F440759A
:101B4000CA682A434D6922F080022A4302608A68EB
:101B5000C2620A688262A04201D0984201D109693A
:101B6000016301214161F0BD00000140000400401B
:101B700000080040000C004000040140004001400B
:101B8000004401400048014000180040001C004093
:101B90000020004010B5846842EA032224F47F4408
:101BA0000A432243826010BD826822F070020A4319
:101BB00042F007018160704710B5036A046A24F09F
:101BC00001040462846924F0F00444EA021423F05E
:101BD0000A020A438461026210BD10B5036A23F051
:101BE000100303628369046A23F4704343EA0232F8
:101BF00024F0A00343EA01118261016210BD0000DC
:101C00002DE9F0412B4D0027C5F8A072384600F0B1
:101C1000D5FF294E0024305D00F0D0FF641CE4B2F3
:101C2000042CF8D30126C5F8A0620020401CC0B2E5
:101C30000A28FBD3C5F8A072012000F0BFFFDFF82F
:101C40007880002408F1040818F8040000F0B6FFBA
:101C5000641CE4B2042CF7D3C5F8A0620020401C39
:101C6000C0B20A28FBD3C5F8A072022000F0A6FF7C
:101C7000DFF84880002400BF18F8040000F09EFF41
:101C8000641CE4B2042CF7D3C5F8A0620020401C09
:101C9000C0B20A28FBD30A49C1F8A4620020401C44
:101CA000C0B20A28FBD3C1F8A472BDE8F0410120FC
:101CB000FEF7BCBD0000404250000020102C000880
:101CC000008040422DE9F041134E0025C6F8A05295
:101CD0000E2000F073FF114F0024385D00F06EFFFE
:101CE000641CE4B2082CF8D30121C6F8A01200202D
:101CF000401CC0B20A28FBD3094AC2F8A412002033
:101D0000401CC0B20A28FBD3C2F8A452BDE8F0417F
:101D10000120FEF78BBD000000004042580000206B
:101D20000080404210B5806B0021C185C184FFF75F
:101D300090FB10BD0168CA6822F49072CA60016805
:101D40004A6922F001024A61202180F83A10704766
:101D500010B590F83A10222901D0022010BD8168F8
:101D6000B1F5805F11D00169002901681FD0496871
:101D700001F07F03816A4A1C82620B70C18D491E8B
:101D80000904090CC18518D02BE00269816A002A78
:101D90000268526805D0D2B20A80816A491C816209
:101DA000ECE7C2F308020A80816A891CF7E74A68F7
:101DB000816A4B1C83620A70E0E70168CA6822F0FE
:101DC0002002CA600168CA6822F48072CA60016891
:101DD0004A6922F001024A61202180F83A10FFF797
:101DE00033FC002010BD00002DE9F04104460068DE
:101DF0000169E26821F44051114301612169A06841
:101E0000E26908436169114308432168CA6849F2DD
:101E10000C639A430243CA6020684169A26921F4B5
:101E2000407111434161E069192764253226B0F5FC
:101E3000004F354A354920684FF0000806D08842E7
:101E400001D0904236D1FEF72FFF35E0884201D015
:101E5000904202D1FEF728FF01E0FEF715FF61680E
:101E60004A18A0FB070148EB0803FEF7A9F9014651
:101E7000B0FBF5F00201B1FBF5F06FF01803584329
:101E800001EB800006EBC000B0FBF5F000F0F800BD
:101E900002EB4002B1FBF5F0584301EB800006EB8A
:101EA000C000B0FBF5F000F0070021681044886026
:101EB000BDE8F081FEF7E8FE61688B0F8A00A0FBA9
:101EC0000701FEF77DF90146B0FBF5F06FF018024F
:101ED000504301EB800006EB0010B0FBF5F000F082
:101EE000F002B1FBF5F002EB0012B1FBF5F06FF080
:101EF0001803584301EB800006EB0010B0FBF5F02F
:101F000000F00F00D1E70000001401400010014074
:101F100090F83910212901D0022070478168B1F56D
:101F2000805F016A0BD04A1C026202680978516026
:101F3000C18C491E0904090CC1840ED017E0098820
:101F40000268C1F30801516001690029016A02D0E9
:101F5000491C0162ECE7891CFBE70168CA6822F0B2
:101F60008002CA600068C16841F04001C160002081
:101F700070472DE9F041984617460E460446069DE7
:101F80001DE0681C1BD02DB1FEF744FDA0EB08003E
:101F9000A84214D92068C16821F4D071C1602068BA
:101FA000416921F001014161202084F8390084F861
:101FB0003A00002084F838000320BDE8F081206852
:101FC000006836EA000004D00020B842D9D00020D2
:101FD000F3E70120F9E700000148FFF73BBA0000F2
:101FE000EC000020FEE7000010B5FEF7C6FA9FEDFA
:101FF0000B1B53EC112BFEF7DFF9FEF7CBFAB0F514
:10200000804F01D343F6FF700649C0F30D004870BE
:10201000000A0870BDE81040FFF754BECAB1AB7F9C
:10202000C6343940580000200FB4054B10B503A941
:10203000044A029800F0EAF810BC5DF814FB0000B6
:10204000F52A0008680000200907090E002804DBB3
:1020500000F1E02080F80014704700F00F0000F15C
:10206000E02080F8141D704702E008C8121F08C164
:10207000002AFAD170477047002001E001C1121F09
:10208000002AFBD1704700002DE9FF5F82B00021DC
:10209000DDE90430020DDDF840B0034318D044F60A
:1020A0001050A2F2FF3242431514119801281FD09C
:1020B000A5EB0B00401C5FEA000A4FF000064E4FF4
:1020C000DFF83891B046504615D5CAF1000413E048
:1020D000119801244AA3012801D16FEA0B0102984B
:1020E000119AC0E90031C0E9024206B0BDE8F09F94
:1020F000CBF10000DFE704460021404A491842EBDB
:102100000450CDE9001012E0E00707D032463B460C
:1021100040464946FEF750F98046894632463B46DE
:1021200010461946FEF748F906460F466410002C83
:10213000EAD1DDE90401DDE90023BAF1000F06DA96
:10214000FEF73AF942464B46FEF736F905E0FEF750
:10215000A5F942464B46FEF7A1F904460E46002279
:10216000284BFEF7FFFA03D84FF0FF30014607E097
:102170000022254B20463146FEF777F8FEF7DAFAC3
:10218000102409E0002C0ADB0A220023FEF718F8CD
:10219000039B30321A55641E50EA0102F2D1641CCE
:1021A000039AC4F111031444119A012A03D00122A5
:1021B00008430DD10AE0084304D000204FF0110B72
:1021C000119072E7A3EB0B056D1E0DE05B4504DD7E
:1021D0004FF0000205F1010504E003DA4FF00002C0
:1021E000A5F10105002AECD002981199C0E902314D
:1021F000C0E9004579E70000000014400000F03F0E
:10220000300000000000F0430000E03F2DE9FF4FE8
:1022100095B09B468946064600250FE2252877D1D2
:1022200000242746F84A0121059400E0044316F8EB
:10223000013F203B01FA03F01042F7D130782A2801
:1022400011D06FF02F033078A0F13002092A16D890
:10225000059A44F0020402EB820203EB42021044AE
:10226000761C0590EFE759F8042B0592002A03DA53
:10227000504244F40054059044F00204761C307837
:102280002E2816D116F8010F44F004042A280DD088
:102290006FF02F023078A0F13003092B09D807EB3B
:1022A000870302EB4303C718761CF3E759F8047B56
:1022B000761C30786C280FD006DC4C2817D06828A4
:1022C0000DD06A2814D104E0742810D07A280FD1D8
:1022D0000DE044F400140AE044F4801401E044F4F6
:1022E00040147278824202D104F58014761C761C68
:1022F000307866280BD013DC582877D009DC00280A
:1023000075D04528F6D04628F4D047281AD19DE14B
:1023100018E0632835D0642879D0652812D195E17A
:10232000702873D008DC6728F1D069286FD06E2838
:102330000DD06F2806D1B5E073282CD0752875D044
:10234000782874D05A46179990476D1C75E1C4F3EC
:102350000250022809D003280DD0D9F80010042813
:102360000DD00D6009F1040967E1D9F80010EA17F2
:10237000C1E90052F6E7D9F800100D80F2E70D70C0
:10238000F0E719F8041B8DF8001000208DF801000B
:10239000EA46012003E059F804AB4FF0FF30610733
:1023A0004FF0000102D40DE008F101018846B94266
:1023B0000FDA8045F8DB1AF808100029F4D108E09C
:1023C00008F1010188468142FADB1AF80810002959
:1023D000F6D105985B46A0EB080721463846179AC8
:1023E00000F094FA284400EB080507E04DE029E1ED
:1023F0000DE01AF8010B5A4617999047B8F10108F9
:10240000F7D25B4621463846179A13E142E00A228A
:102410000092C4F302524FF0000A022A08D059F881
:1024200004CB032A4FEAEC710AD00DE029E02AE040
:1024300009F1070121F00702F2E802C1914609E023
:102440000FFA8CFC4FEAEC71042A03D14FFA8CFC92
:102450004FEAEC71002907DA0A460021DCF1000C92
:1024600061EB02012D2202E0220504D52B228DF81A
:102470000420012203E0E20701D02022F7E7904682
:1024800059E00A2102E010220DE010214FF0000A6D
:1024900000910BE010224FF0000A44F004040827DA
:1024A000009203E008224FF0000A0092C4F30252A7
:1024B000022A05D059F804CB0021032A08D009E0EC
:1024C00009F1070121F00702F2E802C1914605E097
:1024D0001FFA8CFC042A01D10CF0FF0C4FF000080D
:1024E000220728D5702806D0009B83F0100353EAFA
:1024F0000A0305D00EE040228DF80420012208E0F6
:102500005CEA010206D030228DF804208DF8050027
:1025100002229046009B83F0080353EA0A030AD183
:102520005CEA010201D1620705D530228DF8042052
:102530004FF001087F1E582804D034A003900EA845
:1025400002900DE036A0F9E753466046009AFDF789
:1025500037FE84460398825C0298401E0290027007
:102560005CEA0100F0D1029806A9081A00F1200ADD
:10257000600702D524F4803400E00127574502DDCE
:10258000A7EB0A0000E0002000EB0A01009005988C
:102590004144401A0590E00306D45B462146179A51
:1025A000059800F0B3F90544002706E001A85A4653
:1025B000C05D179990476D1C7F1C4745F6DBE00313
:1025C0000CD55B462146179A059800F09FF9054403
:1025D00004E030205A46179990476D1C0099481E18
:1025E00000900029F5DC08E0029802995A4600782C
:1025F000491C0291179990476D1CBAF10001AAF18C
:10260000010AF1DC65E100000928010030313233B4
:10261000343536373839616263646566000000001E
:102620003031323334353637383941424344454608
:102630000000000000F058F90544761C30780028AE
:102640007FF4ECAD19B02846BDE8F08F620700D4E6
:10265000062709F1070222F0070CFCE80223E146F5
:1026600003F000485FEA080C02D00FF2702C0DE076
:102670005FEA045C02D50FF2682C07E05FEAC47CD5
:1026800002D00FF2602C01E0AFF2700C4FF0FF3877
:1026900023F00043CDF850C065280CD006DC452857
:1026A00009D046281DD047283DD13DE0662818D0E6
:1026B00067287ED138E00021112F01DB112000E0D6
:1026C000781CCDE9000106A90EA8FFF7DDFCDDE9C5
:1026D0000F010E9A03910021009207F1010A049163
:1026E0004DE04FF000400097CDE9011006A90EA87B
:1026F000FFF7CAFCDDE90F0203920E9B119900223D
:10270000DDF80CA00093049211B9791C00EB010ACA
:10271000B7EB0A0004D4C0F1FF3007F1010A0490BE
:10272000AAEB0700019044E0012F00DA0127002105
:10273000112F01DD112000E03846CDE9000106A986
:102740000EA8FFF7A1FCDDE90F010E9A039100210D
:1027500004910092BA4621070CD40399514500DA3E
:102760008A46BAF1010F05DD009AAAF10101515C18
:10277000302908D0B84202DA10F1040F06DA01213C
:10278000CDE9011015E0AAF10101E9E7002805DC17
:10279000049901440491AAEB000102E0411C514557
:1027A00000DD8A460499401A401C01904FF0004019
:1027B0000290200704D40198504501DBCDF8048035
:1027C00000208DF84F0002980DF14F07B0F1004F37
:1027D00025D02B200E9002984FF0020800280CDA2A
:1027E000404202902D200E9007E00A210298FDF74A
:1027F000FDFE3031029007F8011DB8F10001A8F18B
:102800000108F2DC02980028EFD1791E0E980870BA
:10281000307800F0200040F0450007F8020D12A8C3
:10282000C01B00F107081498007800B1012000EBEC
:102830000A01019801EBE07105984144401A401EDD
:102840000590E00306D45B462146179A059800F0F0
:102850005DF805441498007818B15A4617999047C6
:102860006D1CE00324D55B462146179A059800F0BD
:102870004DF805441CE00498002807DBDDE903015E
:10288000884203DD0098405C179901E017993020D9
:102890005A469047049805F10105401C04900198A0
:1028A000401E019004D12E205A46179990476D1C66
:1028B000BAF10001AAF1010ADDDC05E017F8010B0D
:1028C0005A46179990476D1CB8F10001A8F101080C
:1028D000F4DC5B462146179A0598ABE62D00000014
:1028E0002B000000200000002DE9F04104460025E7
:1028F0001E461746880404D405E039462020B04718
:102900006D1C641EF9D52846BDE8F0812DE9F04123
:10291000044600251E469046C80301D5302700E036
:102920002027880404D505E041463846B0476D1C91
:10293000641EF9D52846BDE8F08100002DE9F0417C
:102940002A4E4FF0805030600025294C471400BFBC
:1029500000F05CF86188B94205D204EB4101C880FF
:102960006088401C60806D1C15F0FF05F0D04FF4AE
:102970008050306000F086F81E4D00212A68E8681B
:1029800090421CD2B4F90620DFED1B0A00EE102A9B
:102990001A4AB8EEC00A02EBC00200F1010020EEB4
:1029A000200AF6EE000A20EE200A82ED000A9FEDD2
:1029B000140A82ED010A6180E860BDE8F081FCD173
:1029C000E960A86B4FF0010430B10128F5D0BDE8F3
:1029D000F0410CA0FFF728BB08494FF4007201F545
:1029E0000070FDF71EFCAC63E7E70000180802402A
:1029F0002C010020140000200000003834110020B9
:102A0000000000006572726F72000000FEF7E0BF08
:102A100005484FF0806202600115016001600160AD
:102A2000016002607047000018080240F0B54FF4E2
:102A3000800253101025124901280FD0202694102F
:102A400002280DD003280DD0402704280ED00528D9
:102A500010D0062811D00A600B6009E00A600AE075
:102A60000A600BE00A600E600D60F0BD0F60F3E7D6
:102A70000C60F0BD0F600B60F6E70F600E60F7E7CB
:102A80001808024007484FF00051016001600160E2
:102A90000160016001600160016001600914016072
:102AA00070470000181802400246084810B502613D
:102AB000FFF7E8FF06480021018041801046FEF73D
:102AC0001DFFBDE810400348FEF788BB140000203E
:102AD0002C010020AC00002000B50020FFF7A6FF6D
:102AE000FFF796FF02494FF40050086000BD000058
:102AF0001818024013B54FF6FF73012269460248C9
:102B0000FEF7A3FD00981CBDEC0000202DED028B0C
:102B1000FDF78EFFFFF7E0FFFEF77CFFFEF716FEE6
:102B2000FEF7B6FEFEF734FF1C48FEF757FB4820C1
:102B3000FDF77CFEFEF7E8FD4FF47A752846FDF7B9
:102B40003FFE0A20FFF750FA15494FF00060086079
:102B5000A801FFF7A9FF134E9FED138A134CF6EE61
:102B6000008A00BFB6F9060000EE100AB8EEC00AEF
:102B700020EE080A20EE280A84ED000A10EE100A62
:102B8000FDF721FD41EC100B09A053EC102BFFF7D2
:102B90004BFA2846FDF74AFEE4E700006C000020EF
:102BA000181802402C01002000000038000000200E
:102BB0006463203D202566200D0A0000F0B50C4C12
:102BC00080220023C4F88C320A4E19460125104297
:102BD00002D1C6F8983201E0C6F89852C4F88C5277
:102BE0005208C4F88C32491CC9B20829EFD3F0BD91
:102BF0000000404200804042000000000000000051
:102C00000102030406070809000000000102030492
:102C1000050F41320000000000000000000000002D
:102C200000000000000000000000000000000000A4
:102C30000000000000000000000000000000000094
:102C40000000000000000000000000000000000084
:102C50000000000000000000000000000000000074
:103C100000000000343C0008000000206C000000A0
:103C200068200008A03C00086C000020441A000036
:103C300078200008000000000100000010000000D3
:103C4000000000000024F40040000000000000001C
:103C50000100000000000000000000000000000063
:103C60000000000000000000000000000000000054
:103C70000000000000000000000000000000000044
:103C80000000000000400000010000003FFF0000B5
:103C900025097B4200000000000000000000000039
:040000050800018965
:00000001FF
